{
  "_format": "hh-sol-artifact-1",
  "contractName": "Create",
  "sourceName": "contracts/Voting.sol",
  "abi": [
    {
      "inputs": [],
      "stateMutability": "nonpayable",
      "type": "constructor"
    },
    {
      "anonymous": false,
      "inputs": [
        {
          "indexed": true,
          "internalType": "uint256",
          "name": "candidateId",
          "type": "uint256"
        },
        {
          "indexed": false,
          "internalType": "string",
          "name": "candidateName",
          "type": "string"
        },
        {
          "indexed": false,
          "internalType": "uint256",
          "name": "candidateAge",
          "type": "uint256"
        },
        {
          "indexed": false,
          "internalType": "string",
          "name": "candidateImage",
          "type": "string"
        },
        {
          "indexed": false,
          "internalType": "uint256",
          "name": "voteCount",
          "type": "uint256"
        },
        {
          "indexed": false,
          "internalType": "address",
          "name": "_address",
          "type": "address"
        },
        {
          "indexed": false,
          "internalType": "string",
          "name": "ipfs",
          "type": "string"
        }
      ],
      "name": "CandidateCreate",
      "type": "event"
    },
    {
      "anonymous": false,
      "inputs": [
        {
          "indexed": true,
          "internalType": "uint256",
          "name": "voter_id",
          "type": "uint256"
        },
        {
          "indexed": false,
          "internalType": "string",
          "name": "voter_name",
          "type": "string"
        },
        {
          "indexed": false,
          "internalType": "string",
          "name": "voter_image",
          "type": "string"
        },
        {
          "indexed": false,
          "internalType": "address",
          "name": "voter_address",
          "type": "address"
        },
        {
          "indexed": false,
          "internalType": "uint256",
          "name": "voter_allowed",
          "type": "uint256"
        },
        {
          "indexed": false,
          "internalType": "bool",
          "name": "voter_voted",
          "type": "bool"
        },
        {
          "indexed": false,
          "internalType": "uint256",
          "name": "voter_vote",
          "type": "uint256"
        },
        {
          "indexed": false,
          "internalType": "string",
          "name": "voter_ipfs",
          "type": "string"
        }
      ],
      "name": "VoterCreated",
      "type": "event"
    },
    {
      "inputs": [],
      "name": "_candidateId",
      "outputs": [
        {
          "internalType": "uint256",
          "name": "_value",
          "type": "uint256"
        }
      ],
      "stateMutability": "view",
      "type": "function"
    },
    {
      "inputs": [],
      "name": "_voterId",
      "outputs": [
        {
          "internalType": "uint256",
          "name": "_value",
          "type": "uint256"
        }
      ],
      "stateMutability": "view",
      "type": "function"
    },
    {
      "inputs": [
        {
          "internalType": "uint256",
          "name": "",
          "type": "uint256"
        }
      ],
      "name": "candidateAddress",
      "outputs": [
        {
          "internalType": "address",
          "name": "",
          "type": "address"
        }
      ],
      "stateMutability": "view",
      "type": "function"
    },
    {
      "inputs": [
        {
          "internalType": "address",
          "name": "",
          "type": "address"
        }
      ],
      "name": "candidates",
      "outputs": [
        {
          "internalType": "uint256",
          "name": "candidateId",
          "type": "uint256"
        },
        {
          "internalType": "string",
          "name": "candidateName",
          "type": "string"
        },
        {
          "internalType": "uint256",
          "name": "candidateAge",
          "type": "uint256"
        },
        {
          "internalType": "string",
          "name": "candidateImage",
          "type": "string"
        },
        {
          "internalType": "uint256",
          "name": "voteCount",
          "type": "uint256"
        },
        {
          "internalType": "address",
          "name": "_address",
          "type": "address"
        },
        {
          "internalType": "string",
          "name": "ipfs",
          "type": "string"
        }
      ],
      "stateMutability": "view",
      "type": "function"
    },
    {
      "inputs": [],
      "name": "getCandidate",
      "outputs": [
        {
          "internalType": "address[]",
          "name": "",
          "type": "address[]"
        }
      ],
      "stateMutability": "view",
      "type": "function"
    },
    {
      "inputs": [
        {
          "internalType": "address",
          "name": "_address",
          "type": "address"
        }
      ],
      "name": "getCandidateData",
      "outputs": [
        {
          "internalType": "uint256",
          "name": "",
          "type": "uint256"
        },
        {
          "internalType": "string",
          "name": "",
          "type": "string"
        },
        {
          "internalType": "uint256",
          "name": "",
          "type": "uint256"
        },
        {
          "internalType": "string",
          "name": "",
          "type": "string"
        },
        {
          "internalType": "uint256",
          "name": "",
          "type": "uint256"
        },
        {
          "internalType": "address",
          "name": "",
          "type": "address"
        },
        {
          "internalType": "string",
          "name": "",
          "type": "string"
        }
      ],
      "stateMutability": "view",
      "type": "function"
    },
    {
      "inputs": [],
      "name": "getCandidateLength",
      "outputs": [
        {
          "internalType": "uint256",
          "name": "",
          "type": "uint256"
        }
      ],
      "stateMutability": "view",
      "type": "function"
    },
    {
      "inputs": [],
      "name": "getVotedVoterList",
      "outputs": [
        {
          "internalType": "address[]",
          "name": "",
          "type": "address[]"
        }
      ],
      "stateMutability": "view",
      "type": "function"
    },
    {
      "inputs": [
        {
          "internalType": "address",
          "name": "_address",
          "type": "address"
        }
      ],
      "name": "getVoterData",
      "outputs": [
        {
          "internalType": "uint256",
          "name": "",
          "type": "uint256"
        },
        {
          "internalType": "string",
          "name": "",
          "type": "string"
        },
        {
          "internalType": "string",
          "name": "",
          "type": "string"
        },
        {
          "internalType": "address",
          "name": "",
          "type": "address"
        },
        {
          "internalType": "string",
          "name": "",
          "type": "string"
        },
        {
          "internalType": "uint256",
          "name": "",
          "type": "uint256"
        },
        {
          "internalType": "bool",
          "name": "",
          "type": "bool"
        }
      ],
      "stateMutability": "view",
      "type": "function"
    },
    {
      "inputs": [],
      "name": "getVoterLength",
      "outputs": [
        {
          "internalType": "uint256",
          "name": "",
          "type": "uint256"
        }
      ],
      "stateMutability": "view",
      "type": "function"
    },
    {
      "inputs": [],
      "name": "getVoterList",
      "outputs": [
        {
          "internalType": "address[]",
          "name": "",
          "type": "address[]"
        }
      ],
      "stateMutability": "view",
      "type": "function"
    },
    {
      "inputs": [
        {
          "internalType": "address",
          "name": "_address",
          "type": "address"
        },
        {
          "internalType": "string",
          "name": "_candidateName",
          "type": "string"
        },
        {
          "internalType": "uint256",
          "name": "_candidateAge",
          "type": "uint256"
        },
        {
          "internalType": "string",
          "name": "_candidateImage",
          "type": "string"
        },
        {
          "internalType": "string",
          "name": "_ipfs",
          "type": "string"
        }
      ],
      "name": "setCandidate",
      "outputs": [],
      "stateMutability": "nonpayable",
      "type": "function"
    },
    {
      "inputs": [
        {
          "internalType": "address",
          "name": "_candidateAddress",
          "type": "address"
        },
        {
          "internalType": "uint256",
          "name": "_candidateVoteId",
          "type": "uint256"
        }
      ],
      "name": "vote",
      "outputs": [],
      "stateMutability": "nonpayable",
      "type": "function"
    },
    {
      "inputs": [
        {
          "internalType": "uint256",
          "name": "",
          "type": "uint256"
        }
      ],
      "name": "votedVoters",
      "outputs": [
        {
          "internalType": "address",
          "name": "",
          "type": "address"
        }
      ],
      "stateMutability": "view",
      "type": "function"
    },
    {
      "inputs": [
        {
          "internalType": "address",
          "name": "_address",
          "type": "address"
        },
        {
          "internalType": "string",
          "name": "_name",
          "type": "string"
        },
        {
          "internalType": "uint256",
          "name": "_age",
          "type": "uint256"
        },
        {
          "internalType": "string",
          "name": "_image",
          "type": "string"
        },
        {
          "internalType": "string",
          "name": "_ipfs",
          "type": "string"
        }
      ],
      "name": "voterRight",
      "outputs": [],
      "stateMutability": "nonpayable",
      "type": "function"
    },
    {
      "inputs": [
        {
          "internalType": "address",
          "name": "",
          "type": "address"
        }
      ],
      "name": "voters",
      "outputs": [
        {
          "internalType": "uint256",
          "name": "voter_id",
          "type": "uint256"
        },
        {
          "internalType": "string",
          "name": "voter_name",
          "type": "string"
        },
        {
          "internalType": "string",
          "name": "voter_image",
          "type": "string"
        },
        {
          "internalType": "address",
          "name": "voter_address",
          "type": "address"
        },
        {
          "internalType": "uint256",
          "name": "voter_allowed",
          "type": "uint256"
        },
        {
          "internalType": "bool",
          "name": "voter_voted",
          "type": "bool"
        },
        {
          "internalType": "uint256",
          "name": "voter_vote",
          "type": "uint256"
        },
        {
          "internalType": "string",
          "name": "voter_ipfs",
          "type": "string"
        }
      ],
      "stateMutability": "view",
      "type": "function"
    },
    {
      "inputs": [
        {
          "internalType": "uint256",
          "name": "",
          "type": "uint256"
        }
      ],
      "name": "votersAddress",
      "outputs": [
        {
          "internalType": "address",
          "name": "",
          "type": "address"
        }
      ],
      "stateMutability": "view",
      "type": "function"
    },
    {
      "inputs": [],
      "name": "votingOrganizer",
      "outputs": [
        {
          "internalType": "address",
          "name": "",
          "type": "address"
        }
      ],
      "stateMutability": "view",
      "type": "function"
    }
  ],
  "bytecode": "0x608060405234801561001057600080fd5b5033600260006101000a81548173ffffffffffffffffffffffffffffffffffffffff021916908373ffffffffffffffffffffffffffffffffffffffff160217905550612686806100616000396000f3fe608060405234801561001057600080fd5b50600436106101165760003560e01c80638ab66a90116100a2578063a738896711610071578063a738896714610334578063aa092c4814610352578063b28d92ae1461036e578063b9be31521461038c578063f7522a83146103aa57610116565b80638ab66a90146102735780638e945685146102a95780638fb4cd80146102c7578063a3ec138d146102fd57610116565b80634ef880e6116100e95780634ef880e6146101cf5780635cc48aa7146101eb5780635f74bbde1461020957806370218b85146102255780637831ffb31461024357610116565b806305ad45a41461011b5780632a466ac7146101395780633a88251a1461016f57806343242daa1461019f575b600080fd5b6101236103c8565b60405161013091906118ee565b60405180910390f35b610153600480360381019061014e919061197b565b6103d5565b6040516101669796959493929190611a47565b60405180910390f35b61018960048036038101906101849190611af7565b610791565b6040516101969190611b24565b60405180910390f35b6101b960048036038101906101b49190611af7565b6107d0565b6040516101c69190611b24565b60405180910390f35b6101e960048036038101906101e49190611c74565b61080f565b005b6101f3610ab5565b6040516102009190611b24565b60405180910390f35b610223600480360381019061021e9190611d43565b610adb565b005b61022d610ca2565b60405161023a9190611e41565b60405180910390f35b61025d60048036038101906102589190611af7565b610d30565b60405161026a9190611b24565b60405180910390f35b61028d6004803603810190610288919061197b565b610d6f565b6040516102a09796959493929190611a47565b60405180910390f35b6102b1610f69565b6040516102be9190611e41565b60405180910390f35b6102e160048036038101906102dc919061197b565b610ff7565b6040516102f49796959493929190611e7e565b60405180910390f35b6103176004803603810190610312919061197b565b6113bf565b60405161032b989796959493929190611f02565b60405180910390f35b61033c6115cc565b60405161034991906118ee565b60405180910390f35b61036c60048036038101906103679190611c74565b6115d8565b005b61037661180a565b6040516103839190611e41565b60405180910390f35b610394611898565b6040516103a191906118ee565b60405180910390f35b6103b26118a4565b6040516103bf91906118ee565b60405180910390f35b6000600680549050905090565b60006060600060606000806060600460008973ffffffffffffffffffffffffffffffffffffffff1673ffffffffffffffffffffffffffffffffffffffff16815260200190815260200160002060000154600460008a73ffffffffffffffffffffffffffffffffffffffff1673ffffffffffffffffffffffffffffffffffffffff168152602001908152602001600020600101600460008b73ffffffffffffffffffffffffffffffffffffffff1673ffffffffffffffffffffffffffffffffffffffff16815260200190815260200160002060020154600460008c73ffffffffffffffffffffffffffffffffffffffff1673ffffffffffffffffffffffffffffffffffffffff168152602001908152602001600020600301600460008d73ffffffffffffffffffffffffffffffffffffffff1673ffffffffffffffffffffffffffffffffffffffff16815260200190815260200160002060040154600460008e73ffffffffffffffffffffffffffffffffffffffff1673ffffffffffffffffffffffffffffffffffffffff16815260200190815260200160002060050160009054906101000a900473ffffffffffffffffffffffffffffffffffffffff16600460008f73ffffffffffffffffffffffffffffffffffffffff1673ffffffffffffffffffffffffffffffffffffffff1681526020019081526020016000206006018580546105e090611fc4565b80601f016020809104026020016040519081016040528092919081815260200182805461060c90611fc4565b80156106595780601f1061062e57610100808354040283529160200191610659565b820191906000526020600020905b81548152906001019060200180831161063c57829003601f168201915b5050505050955083805461066c90611fc4565b80601f016020809104026020016040519081016040528092919081815260200182805461069890611fc4565b80156106e55780601f106106ba576101008083540402835291602001916106e5565b820191906000526020600020905b8154815290600101906020018083116106c857829003601f168201915b505050505093508080546106f890611fc4565b80601f016020809104026020016040519081016040528092919081815260200182805461072490611fc4565b80156107715780601f1061074657610100808354040283529160200191610771565b820191906000526020600020905b81548152906001019060200180831161075457829003601f168201915b505050505090509650965096509650965096509650919395979092949650565b600381815481106107a157600080fd5b906000526020600020016000915054906101000a900473ffffffffffffffffffffffffffffffffffffffff1681565b600681815481106107e057600080fd5b906000526020600020016000915054906101000a900473ffffffffffffffffffffffffffffffffffffffff1681565b3373ffffffffffffffffffffffffffffffffffffffff16600260009054906101000a900473ffffffffffffffffffffffffffffffffffffffff1673ffffffffffffffffffffffffffffffffffffffff161461089f576040517f08c379a000000000000000000000000000000000000000000000000000000000815260040161089690612067565b60405180910390fd5b6108a960006118b1565b60006108b560006118c7565b90506000600760008873ffffffffffffffffffffffffffffffffffffffff1673ffffffffffffffffffffffffffffffffffffffff1681526020019081526020016000209050600081600401541461090b57600080fd5b600181600401819055508181600001819055508581600101908161092f9190612233565b50838160020190816109419190612233565b50868160030160006101000a81548173ffffffffffffffffffffffffffffffffffffffff021916908373ffffffffffffffffffffffffffffffffffffffff1602179055506103e8816006018190555060008160050160006101000a81548160ff021916908315150217905550828160070190816109be9190612233565b506006879080600181540180825580915050600190039060005260206000200160009091909190916101000a81548173ffffffffffffffffffffffffffffffffffffffff021916908373ffffffffffffffffffffffffffffffffffffffff160217905550817ff5f39971dd62d9929e3a9feaa6bb77fe7c7da0001babff8a65a7e51ad0201c1982600101836002018460030160009054906101000a900473ffffffffffffffffffffffffffffffffffffffff1685600401548660050160009054906101000a900460ff16876006015488600701604051610aa49796959493929190612389565b60405180910390a250505050505050565b600260009054906101000a900473ffffffffffffffffffffffffffffffffffffffff1681565b6000600760003373ffffffffffffffffffffffffffffffffffffffff1673ffffffffffffffffffffffffffffffffffffffff16815260200190815260200160002090508060050160009054906101000a900460ff1615610b70576040517f08c379a0000000000000000000000000000000000000000000000000000000008152600401610b6790612459565b60405180910390fd5b6000816004015403610bb7576040517f08c379a0000000000000000000000000000000000000000000000000000000008152600401610bae906124c5565b60405180910390fd5b60018160050160006101000a81548160ff0219169083151502179055508181600601819055506005339080600181540180825580915050600190039060005260206000200160009091909190916101000a81548173ffffffffffffffffffffffffffffffffffffffff021916908373ffffffffffffffffffffffffffffffffffffffff1602179055508060040154600460008573ffffffffffffffffffffffffffffffffffffffff1673ffffffffffffffffffffffffffffffffffffffff1681526020019081526020016000206004016000828254610c969190612514565b92505081905550505050565b60606003805480602002602001604051908101604052809291908181526020018280548015610d2657602002820191906000526020600020905b8160009054906101000a900473ffffffffffffffffffffffffffffffffffffffff1673ffffffffffffffffffffffffffffffffffffffff1681526020019060010190808311610cdc575b5050505050905090565b60058181548110610d4057600080fd5b906000526020600020016000915054906101000a900473ffffffffffffffffffffffffffffffffffffffff1681565b6004602052806000526040600020600091509050806000015490806001018054610d9890611fc4565b80601f0160208091040260200160405190810160405280929190818152602001828054610dc490611fc4565b8015610e115780601f10610de657610100808354040283529160200191610e11565b820191906000526020600020905b815481529060010190602001808311610df457829003601f168201915b505050505090806002015490806003018054610e2c90611fc4565b80601f0160208091040260200160405190810160405280929190818152602001828054610e5890611fc4565b8015610ea55780601f10610e7a57610100808354040283529160200191610ea5565b820191906000526020600020905b815481529060010190602001808311610e8857829003601f168201915b5050505050908060040154908060050160009054906101000a900473ffffffffffffffffffffffffffffffffffffffff1690806006018054610ee690611fc4565b80601f0160208091040260200160405190810160405280929190818152602001828054610f1290611fc4565b8015610f5f5780601f10610f3457610100808354040283529160200191610f5f565b820191906000526020600020905b815481529060010190602001808311610f4257829003601f168201915b5050505050905087565b60606005805480602002602001604051908101604052809291908181526020018280548015610fed57602002820191906000526020600020905b8160009054906101000a900473ffffffffffffffffffffffffffffffffffffffff1673ffffffffffffffffffffffffffffffffffffffff1681526020019060010190808311610fa3575b5050505050905090565b600060608060006060600080600760008973ffffffffffffffffffffffffffffffffffffffff1673ffffffffffffffffffffffffffffffffffffffff16815260200190815260200160002060000154600760008a73ffffffffffffffffffffffffffffffffffffffff1673ffffffffffffffffffffffffffffffffffffffff168152602001908152602001600020600101600760008b73ffffffffffffffffffffffffffffffffffffffff1673ffffffffffffffffffffffffffffffffffffffff168152602001908152602001600020600201600760008c73ffffffffffffffffffffffffffffffffffffffff1673ffffffffffffffffffffffffffffffffffffffff16815260200190815260200160002060030160009054906101000a900473ffffffffffffffffffffffffffffffffffffffff16600760008d73ffffffffffffffffffffffffffffffffffffffff1673ffffffffffffffffffffffffffffffffffffffff168152602001908152602001600020600701600760008e73ffffffffffffffffffffffffffffffffffffffff1673ffffffffffffffffffffffffffffffffffffffff16815260200190815260200160002060040154600760008f73ffffffffffffffffffffffffffffffffffffffff1673ffffffffffffffffffffffffffffffffffffffff16815260200190815260200160002060050160009054906101000a900460ff1685805461120e90611fc4565b80601f016020809104026020016040519081016040528092919081815260200182805461123a90611fc4565b80156112875780601f1061125c57610100808354040283529160200191611287565b820191906000526020600020905b81548152906001019060200180831161126a57829003601f168201915b5050505050955084805461129a90611fc4565b80601f01602080910402602001604051908101604052809291908181526020018280546112c690611fc4565b80156113135780601f106112e857610100808354040283529160200191611313565b820191906000526020600020905b8154815290600101906020018083116112f657829003601f168201915b5050505050945082805461132690611fc4565b80601f016020809104026020016040519081016040528092919081815260200182805461135290611fc4565b801561139f5780601f106113745761010080835404028352916020019161139f565b820191906000526020600020905b81548152906001019060200180831161138257829003601f168201915b505050505092509650965096509650965096509650919395979092949650565b60076020528060005260406000206000915090508060000154908060010180546113e890611fc4565b80601f016020809104026020016040519081016040528092919081815260200182805461141490611fc4565b80156114615780601f1061143657610100808354040283529160200191611461565b820191906000526020600020905b81548152906001019060200180831161144457829003601f168201915b50505050509080600201805461147690611fc4565b80601f01602080910402602001604051908101604052809291908181526020018280546114a290611fc4565b80156114ef5780601f106114c4576101008083540402835291602001916114ef565b820191906000526020600020905b8154815290600101906020018083116114d257829003601f168201915b5050505050908060030160009054906101000a900473ffffffffffffffffffffffffffffffffffffffff16908060040154908060050160009054906101000a900460ff169080600601549080600701805461154990611fc4565b80601f016020809104026020016040519081016040528092919081815260200182805461157590611fc4565b80156115c25780601f10611597576101008083540402835291602001916115c2565b820191906000526020600020905b8154815290600101906020018083116115a557829003601f168201915b5050505050905088565b60018060000154905081565b3373ffffffffffffffffffffffffffffffffffffffff16600260009054906101000a900473ffffffffffffffffffffffffffffffffffffffff1673ffffffffffffffffffffffffffffffffffffffff1614611668576040517f08c379a000000000000000000000000000000000000000000000000000000000815260040161165f906125ba565b60405180910390fd5b61167260016118b1565b600061167e60016118c7565b90506000600460008873ffffffffffffffffffffffffffffffffffffffff1673ffffffffffffffffffffffffffffffffffffffff1681526020019081526020016000209050818160000181905550868160050160006101000a81548173ffffffffffffffffffffffffffffffffffffffff021916908373ffffffffffffffffffffffffffffffffffffffff160217905550858160010190816117209190612233565b508481600201819055508381600301908161173b9190612233565b5060008160040181905550828160060190816117579190612233565b506003879080600181540180825580915050600190039060005260206000200160009091909190916101000a81548173ffffffffffffffffffffffffffffffffffffffff021916908373ffffffffffffffffffffffffffffffffffffffff160217905550817fc832c489a6a3404746341b2e17c977eeb2f2999864dd64a31b1ea255affa594a87878785600401548c896040516117f9969594939291906125da565b60405180910390a250505050505050565b6060600680548060200260200160405190810160405280929190818152602001828054801561188e57602002820191906000526020600020905b8160009054906101000a900473ffffffffffffffffffffffffffffffffffffffff1673ffffffffffffffffffffffffffffffffffffffff1681526020019060010190808311611844575b5050505050905090565b60008060000154905081565b6000600380549050905090565b6001816000016000828254019250508190555050565b600081600001549050919050565b6000819050919050565b6118e8816118d5565b82525050565b600060208201905061190360008301846118df565b92915050565b6000604051905090565b600080fd5b600080fd5b600073ffffffffffffffffffffffffffffffffffffffff82169050919050565b60006119488261191d565b9050919050565b6119588161193d565b811461196357600080fd5b50565b6000813590506119758161194f565b92915050565b60006020828403121561199157611990611913565b5b600061199f84828501611966565b91505092915050565b600081519050919050565b600082825260208201905092915050565b60005b838110156119e25780820151818401526020810190506119c7565b60008484015250505050565b6000601f19601f8301169050919050565b6000611a0a826119a8565b611a1481856119b3565b9350611a248185602086016119c4565b611a2d816119ee565b840191505092915050565b611a418161193d565b82525050565b600060e082019050611a5c600083018a6118df565b8181036020830152611a6e81896119ff565b9050611a7d60408301886118df565b8181036060830152611a8f81876119ff565b9050611a9e60808301866118df565b611aab60a0830185611a38565b81810360c0830152611abd81846119ff565b905098975050505050505050565b611ad4816118d5565b8114611adf57600080fd5b50565b600081359050611af181611acb565b92915050565b600060208284031215611b0d57611b0c611913565b5b6000611b1b84828501611ae2565b91505092915050565b6000602082019050611b396000830184611a38565b92915050565b600080fd5b600080fd5b7f4e487b7100000000000000000000000000000000000000000000000000000000600052604160045260246000fd5b611b81826119ee565b810181811067ffffffffffffffff82111715611ba057611b9f611b49565b5b80604052505050565b6000611bb3611909565b9050611bbf8282611b78565b919050565b600067ffffffffffffffff821115611bdf57611bde611b49565b5b611be8826119ee565b9050602081019050919050565b82818337600083830152505050565b6000611c17611c1284611bc4565b611ba9565b905082815260208101848484011115611c3357611c32611b44565b5b611c3e848285611bf5565b509392505050565b600082601f830112611c5b57611c5a611b3f565b5b8135611c6b848260208601611c04565b91505092915050565b600080600080600060a08688031215611c9057611c8f611913565b5b6000611c9e88828901611966565b955050602086013567ffffffffffffffff811115611cbf57611cbe611918565b5b611ccb88828901611c46565b9450506040611cdc88828901611ae2565b935050606086013567ffffffffffffffff811115611cfd57611cfc611918565b5b611d0988828901611c46565b925050608086013567ffffffffffffffff811115611d2a57611d29611918565b5b611d3688828901611c46565b9150509295509295909350565b60008060408385031215611d5a57611d59611913565b5b6000611d6885828601611966565b9250506020611d7985828601611ae2565b9150509250929050565b600081519050919050565b600082825260208201905092915050565b6000819050602082019050919050565b611db88161193d565b82525050565b6000611dca8383611daf565b60208301905092915050565b6000602082019050919050565b6000611dee82611d83565b611df88185611d8e565b9350611e0383611d9f565b8060005b83811015611e34578151611e1b8882611dbe565b9750611e2683611dd6565b925050600181019050611e07565b5085935050505092915050565b60006020820190508181036000830152611e5b8184611de3565b905092915050565b60008115159050919050565b611e7881611e63565b82525050565b600060e082019050611e93600083018a6118df565b8181036020830152611ea581896119ff565b90508181036040830152611eb981886119ff565b9050611ec86060830187611a38565b8181036080830152611eda81866119ff565b9050611ee960a08301856118df565b611ef660c0830184611e6f565b98975050505050505050565b600061010082019050611f18600083018b6118df565b8181036020830152611f2a818a6119ff565b90508181036040830152611f3e81896119ff565b9050611f4d6060830188611a38565b611f5a60808301876118df565b611f6760a0830186611e6f565b611f7460c08301856118df565b81810360e0830152611f8681846119ff565b90509998505050505050505050565b7f4e487b7100000000000000000000000000000000000000000000000000000000600052602260045260246000fd5b60006002820490506001821680611fdc57607f821691505b602082108103611fef57611fee611f95565b5b50919050565b7f596f7520646f206e6f742068617665207065726d697373696f6e20746f20616460008201527f6420766f74657200000000000000000000000000000000000000000000000000602082015250565b60006120516027836119b3565b915061205c82611ff5565b604082019050919050565b6000602082019050818103600083015261208081612044565b9050919050565b60008190508160005260206000209050919050565b60006020601f8301049050919050565b600082821b905092915050565b6000600883026120e97fffffffffffffffffffffffffffffffffffffffffffffffffffffffffffffffff826120ac565b6120f386836120ac565b95508019841693508086168417925050509392505050565b6000819050919050565b600061213061212b612126846118d5565b61210b565b6118d5565b9050919050565b6000819050919050565b61214a83612115565b61215e61215682612137565b8484546120b9565b825550505050565b600090565b612173612166565b61217e818484612141565b505050565b5b818110156121a25761219760008261216b565b600181019050612184565b5050565b601f8211156121e7576121b881612087565b6121c18461209c565b810160208510156121d0578190505b6121e46121dc8561209c565b830182612183565b50505b505050565b600082821c905092915050565b600061220a600019846008026121ec565b1980831691505092915050565b600061222383836121f9565b9150826002028217905092915050565b61223c826119a8565b67ffffffffffffffff81111561225557612254611b49565b5b61225f8254611fc4565b61226a8282856121a6565b600060209050601f83116001811461229d576000841561228b578287015190505b6122958582612217565b8655506122fd565b601f1984166122ab86612087565b60005b828110156122d3578489015182556001820191506020850194506020810190506122ae565b868310156122f057848901516122ec601f8916826121f9565b8355505b6001600288020188555050505b505050505050565b6000815461231281611fc4565b61231c81866119b3565b94506001821660008114612337576001811461234d57612380565b60ff198316865281151560200286019350612380565b61235685612087565b60005b8381101561237857815481890152600182019150602081019050612359565b808801955050505b50505092915050565b600060e08201905081810360008301526123a3818a612305565b905081810360208301526123b78189612305565b90506123c66040830188611a38565b6123d360608301876118df565b6123e06080830186611e6f565b6123ed60a08301856118df565b81810360c08301526123ff8184612305565b905098975050505050505050565b7f596f75206861766520616c726561647920766f74656400000000000000000000600082015250565b60006124436016836119b3565b915061244e8261240d565b602082019050919050565b6000602082019050818103600083015261247281612436565b9050919050565b7f596f752068617665206e6f20726967687420746f20766f746500000000000000600082015250565b60006124af6019836119b3565b91506124ba82612479565b602082019050919050565b600060208201905081810360008301526124de816124a2565b9050919050565b7f4e487b7100000000000000000000000000000000000000000000000000000000600052601160045260246000fd5b600061251f826118d5565b915061252a836118d5565b9250828201905080821115612542576125416124e5565b5b92915050565b7f596f7520646f206e6f742068617665207065726d697373696f6e20746f20616460008201527f642063616e646964617465000000000000000000000000000000000000000000602082015250565b60006125a4602b836119b3565b91506125af82612548565b604082019050919050565b600060208201905081810360008301526125d381612597565b9050919050565b600060c08201905081810360008301526125f481896119ff565b905061260360208301886118df565b818103604083015261261581876119ff565b905061262460608301866118df565b6126316080830185611a38565b81810360a083015261264381846119ff565b905097965050505050505056fea26469706673582212209a01e12f54822c57fd95f2fb2661eb6c4b297edbfe9bffaf5f2cf85111beff9264736f6c63430008180033",
  "linkReferences": {},
  "deployedLinkReferences": {}
}